:020000040800F2
:1000000000000220390600083506000859390008AA
:100010003506000835060008350600080000000017
:10002000000000000000000000000000350600088D
:10003000350600080000000035060008DD3800081D
:1000400035060008350600083506000835060008A4
:100050003506000835060008350600083506000894
:10006000350600083506000835060008E1340008AA
:10007000ED340008ED210008F934000805350008CA
:1000800081D90008BD29000835060008350600089A
:100090003506000835060008350600083506000854
:1000A0003506000835060008350600083506000844
:1000B0009DCD0008A9CD0008B5CD0008ED290008A8
:1000C00035060008F92900083506000855C600085D
:1000D00061C6000891D70008C1D70008F9D7000809
:1000E0003506000835060008000000003506000847
:1000F00035060008350600083506000835060008F4
:100100003506000835060008C1CD00086DC6000898
:1001100031D8000869D800083506000835060008FF
:10012000350600083506000891C60008C5C6000857
:10013000B5D9000835060008350600083506000860
:1001400000000000000000000000000000000000AF
:10015000350600083506000835060008A1D8000855
:10016000052A000835060008ED3800081139000896
:100170003506000835390008350600083506000840
:100180003506000835060008D9D8000811D900083E
:1001900079C6000885C6000835060008350600083F
:1001A0003506000835060008350600083506000843
:1001B00059310008350600083506000835060008E4
:1001C0003506000835060008350600083506000823
:1001D0003506000835060008350600083506000813
:1001E0003506000835060008350600083506000803
:1001F00035060008350600083506000835060008F3
:1002000035060008350600083506000835060008E2
:1002100035060008350600083506000835060008D2
:100220003506000835060008350600080000000005
:1002300035060008350600080000000035060008F5
:1002400035060008350600083506000835060008A2
:100250003506000835060008350600083506000892
:100260003506000835060008350600083506000882
:10027000350600083506000849D9000800000000CE
:1002800035060008350600083506000800000000A5
:08029000000000003506000823
:1002980010B5054C34B113460A460146022000F059
:1002A8002DF910BD204610BD05050008830730B59F
:1002B80047D0541E002A3ED0CAB2034601E0013C92
:1002C80039D303F8012B9D07F9D1032C2CD9CDB2D2
:1002D80005EB05250F2C05EB054535D9A4F11002D2
:1002E80022F00F0C03F1100EE6444FEA121C1A46D6
:1002F800C2E90055C2E9025510327245F8D10CF135
:10030800010214F00C0F03EB021204F00F0C13D0CF
:10031800ACF1040323F003030433134442F8045BF1
:100328009342FBD10CF003042CB1C9B21C4403F86E
:10033800011BA342FBD130BD64461346002CF4D107
:10034800F9E703461446C0E71A46A446E0E700BFAB
:1003580070B50F4B0F4DAB42A3EB050607D0B61097
:10036800002455F8043B01349847A642F9D80FF009
:1003780095FE094D094B5E1BAB424FEAA60606D017
:10038800002455F8043B01349847A642F9D870BDBB
:10039800C4000108C4000108C4000108E8000108FD
:1003A800704700BF704700BF704700BF704700BF6D
:1003B800704700BF704700BF012070470120704799
:1003C800704700BF704700BF844641EA000313F03E
:1003D80003036DD1403A41D351F8043B40F8043B44
:1003E80051F8043B40F8043B51F8043B40F8043B07
:1003F80051F8043B40F8043B51F8043B40F8043BF7
:1004080051F8043B40F8043B51F8043B40F8043BE6
:1004180051F8043B40F8043B51F8043B40F8043BD6
:1004280051F8043B40F8043B51F8043B40F8043BC6
:1004380051F8043B40F8043B51F8043B40F8043BB6
:1004480051F8043B40F8043B51F8043B40F8043BA6
:1004580051F8043B40F8043B403ABDD2303211D346
:1004680051F8043B40F8043B51F8043B40F8043B86
:1004780051F8043B40F8043B51F8043B40F8043B76
:10048800103AEDD20C3205D351F8043B40F8043B46
:10049800043AF9D2043208D0D2071CBF11F8013B44
:1004A80000F8013B01D30B8803806046704700BF0A
:1004B800082A13D38B078DD010F003038AD0C3F119
:1004C8000403D21ADB071CBF11F8013B00F8013BFB
:1004D80080D331F8023B20F8023B7BE7043AD9D3BA
:1004E800013A11F8013B00F8013BF9D20B7803708F
:1004F8004B7843708B788370604670472DE9F04DD8
:10050800DFF8B0A00746DAF800001E468846934692
:10051800FFF750FF234B1D6835B36C681F2C3ADC7E
:10052800B7B1D5F8880040B3D0F8003140F824B00E
:100538000122A2401343C0F8003100EB8403022FCC
:10054800C3F8806004D1D0F804311343C0F80431F3
:10055800631C0234DAF800006B6045F82480FFF76A
:1005680031FF0020BDE8F08D0F49104A1A6011B123
:100578000B68C2F888300D4DCFE70D4B5BB14FF4D7
:100588008470AFF3008030B10023C0E940336C6859
:10059800C5F88800CAE7DAF80000FFF713FF4FF044
:1005A800FF30DFE72C040024A4FE0008A003002489
:1005B800000000000000002453B94AB9002908BF10
:1005C80000281CBF4FF0FF314FF0FF3000F00CB88F
:1005D800ADF1080C6DE904CE0FF0F5FADDF804E092
:1005E800DDE9022304B07047704700BF10B5054C21
:1005F800237833B9044B13B10448AFF300800123C7
:10060800237010BD3805002400000000BC0001085C
:1006180008B5034B1BB103490348AFF3008008BD7D
:10062800000000003C050024BC000108FEE700BFF4
:100638000B480C4A904203D0121A0B49FFF7C4FE2C
:100648000A480B4A904203D0121A0021FFF72EFEE7
:1006580003F0CEFBFFF77CFE00F010F8FEE700BFCA
:100668000000002480030024EC000108800300241B
:10067800C0320024704700BF704700BF00B514485F
:1006880087B000F03BF80021114800F02DF9042153
:100698000F4800F053F80E4800F04CF8102000F016
:1006A8002FF8ADF800000222009901A801F032FBF2
:1006B8000423012207480DEB030101F03FFB054825
:1006C80001F032FD0449024800F030F8FEE700BFAF
:1006D800540500246C050024810600080448002302
:1006E800044A0549036043610362C3630FF066BAB5
:1006F80054050024040000247D060008704700BF4C
:10070800202882B009D8084B03EB400213F81030B8
:10071800507843EA002002B0704701230C2043EAD6
:10072800002002B0704700BFA8FE0008143001F096
:10073800CBBA00BF143001F0C3BA00BF38B500F11E
:10074800140504462DED028B284601F0ABFA284625
:1007580001F0B6FA2846B0EE408A01F09FFAD0EDD3
:10076800007AF8EE677A88EE277ABDEC028B84ED82
:100778000E7A38BD10B540F203318EB000244FF622
:100788000B7340F20342ADF80810029909A8ADF8BE
:100798001030ADF824300123ADF80C202246009427
:1007A80007940C94CDE90544CDE90A4401F0B0FD65
:1007B80004A8012322460399009401F0A9FD09A881
:1007C80001F0B4FE10B901200EB010BD04A801F06C
:1007D800ADFE80F00100C0B240000EB010BD00BFF9
:1007E8002DE9F04103239AB001270024149306460B
:1007F8003A4B1094119340F204531597ADF84830D2
:10080800CDE91647FFF7B6FFB842054643D00228A0
:1008180032D1334B40F601320DF12C080094CDF85B
:100828004A304FF60B73ADF81820404606993A4601
:10083800ADF82C3023460E94CDE91847CDE90C4489
:1008480001F066FD2146404601F07CFE10A906F144
:100858003C0002F0CDFE302003224FF07E5341468B
:100868000D930E93CDE90B02F26B06F1140001F023
:10087800DDF91AB0BDE8F08140F60132184B0DF1F0
:100888002C08ADF82C200B98CDF84A30CDE9184744
:1008980000F0A4F8DAE71023114A06A906908DF8AB
:1008A80028300DF12C080F4BCDF84A2009940294FA
:1008B800CDE90730CDE9180402A802F0A5F808230D
:1008C800029A03A94046ADF80C508DF80E400495E5
:1008D80005930B9400F0C0F8B8E700BF04020404C5
:1008E800040604030704010B2DE9F041394B0446C3
:1008F800394D40F20112012704F104082DED028B55
:1009080082B04560A36003F58133ADF8042040F25E
:10091800027203F580730020A4F82520E36040F6F6
:1009280006632782A4F8293084F8277084F82B708E
:1009380000918DF8060003F011FA054603F07AF8E5
:100948006946064610BB0DB304F130008DF80670F9
:1009580003F08CF9072D2ED104F114052046FFF77A
:100968003FFF284601F0ACF92846B0EE408A01F076
:1009780095F9D0ED007AF8EE677A88EE277A84ED5B
:100988000E7A02B0BDEC028BBDE8F08104F13000B4
:1009980003F06CF9072D13D1002EDDD004F12500EA
:1009A80001F0DAFD04F1290001F0D6FD04F112008E
:1009B80000F072F9D0E74146204602F051FACBE741
:1009C8004146204602F04CFA002EE7D1002DE5D032
:1009D800C2E700BF050705060508050910B584B07C
:1009E8000346012403A8ADF80C30ADF80E4001F021
:1009F800B3FD214603A801F08DFE204603F018F848
:100A0800002103A801F086FE204603F011F82146D4
:100A180003A801F07FFE04B010BD00BF10B5C2F3FB
:100A2800002384B00C46017C8DF80D2043EA440273
:100A3800FA2402238DF80C2003AA009402F074F81B
:100A480018B10124204604B010BD04460A2002F063
:100A5800EFFF204604B010BD034670B5044684B0CD
:100A680043F8042BFA2507C983E80700A1791E2358
:100A7800009503AA1A31ADF80C3020460223C9B2FA
:100A8800217402F051F810B1012004B070BD0A20A1
:100A980002F0CEFF4FF4B85200950223ADF80C20B7
:100AA800204603AA217C02F03FF80028ECD10A2056
:100AB80002F0BEFF41F2027200950223ADF80C204D
:100AC800204603AA217C02F02FF80028DCD10A2056
:100AD80002F0AEFF042200950223ADF80C20204658
:100AE80003AA217C02F020F80028CDD10A2002F0C8
:100AF8009FFF062200950223ADF80C20204603AA8A
:100B0800217C02F011F80028BED10A2002F090FFE3
:100B180041F2082200950223ADF80C20204603AAD2
:100B2800217C02F001F80028AED10A200A2602F042
:100B38007FFF0095022303AA217C2046ADF80C60B4
:100B480001F0F2FF00289FD1304602F071FF2379AF
:100B58000C220095002B217C8DF80C20204614BF18
:100B6800622342236A448DF80D30022301F0DCFF32
:100B7800002889D1304602F05BFFA3680095204623
:100B8800E268217C13432279DBB282F0010243EA56
:100B980082136279524202F0200213430E228DF82A
:100BA8000D3002238DF80C2003AA01F0BDFF0028A8
:100BB8007FF46AAF304602F03BFF10220095022313
:100BC800ADF80C20204603AA217C01F0ADFF0028D7
:100BD8007FF45AAF304602F02BFF12210095022312
:100BE800ADF80C1003AA217C204601F09DFF0028D7
:100BF8007FF44AAF304602F01BFF0122092120464C
:100C0800FFF70CFF003818BF01203EE7F0B5214D73
:100C180087B000240126102702A94FF480522846E5
:100C28000194CDE90267CDE9046409F0B9FE6420B6
:100C380003F028FB022302A94FF4805228460293AE
:100C48000594CDE9037609F0ABFE042302A94FF41D
:100C5800805228460397CDE904340323029309F010
:100C68009FFE40F23223042202A928460193102352
:100C78000496CDE90223019B4FF48052059309F0B5
:100C88008FFE40F60601284609F0AAFE204607B066
:100C9800F0BD00BF9C05002470B51F4B88B008222A
:100CA8001E4E00214FF400641A614FF0020C0392AB
:100CB8000A225E602026069240220546996003209B
:100CC800196210215C620124C3E905624FF4C07205
:100CD800DC60DA6107229FED0E7BCDE900C20422B9
:100CE800CDE904016946181D029283ED0A7B09F0DB
:100CF8002DFE38B92846FFF789FF003818BF0120B4
:100D080008B070BD204608B070BD00BFAFF30080CA
:100D18000010000000000000980500244041005227
:100D28005E4A0023F0B514688FB00A93002C40F097
:100D3800B2805B4B012103260C2511600227D3F8F2
:100D4800D420584842F48052C3F8D420D3F8D42091
:100D580002F480520092009AD3F8E02042F0100288
:100D6800C3F8E020D3F8E02002F010020192019AC3
:100D7800D3F8E02042F04002C3F8E020D3F8E020A6
:100D880002F040020292029AD3F8E02042F00802F0
:100D9800C3F8E020D3F8E02002F008020392039A97
:100DA800D3F8E02042F48072C3F8E020D3F8E020C2
:100DB80002F480720492049AD3F8E02042F0800290
:100DC800C3F8E020D3F8E02002F080020592059AEB
:100DD800D3F8E02042F02002C3F8E020D3F8E02066
:100DE80002F020020692069AD3F8E02042F00402AC
:100DF800C3F8E0204FF68372D3F8E0300B9603F087
:100E080004030C9507930223079908A9CDE9082341
:100E180004F050FF48F2371308A9234808930C95AB
:100E28000997CDE90A4604F045FF4CF2037308A977
:100E38001E480893CDE90974CDE90B6504F03AFF23
:100E480040F2FF6308A91A480893CDE90974CDE96F
:100E58000B6504F02FFF4FF60C7308A9154808938B
:100E6800CDE90974CDE90B6504F024FF4FF63F0383
:100E780008A911480893CDE90974CDE90B6504F078
:100E880019FF202308A90B4809970C950893CDE969
:100E98000A4604F00FFF0FB0F0BD00BF9405002410
:100EA800004402580010025800180258000C02585A
:100EB80000200258001C0258001402582DE9F04F77
:100EC8008BB0DFF818830646BE4800AF1446796237
:100ED80002F090FCD8F818204369002A00F09B80A3
:100EE800D8F81C20D8F804A0002A15BF4FF0100924
:100EF8004FF008094FF0040B4FF0020BBAF1000F46
:100F080000F09780A200E946012B02F1070222F0C7
:100F18000702ADEB020D6846ADEB020DEB4600F0A3
:100F2800D581022B00F05282002B6CD1002C6AD0A4
:100F38001A46D8ED0C6A9FEDA47A0146331D36F99E
:100F48002250083107EE905A33F922500232F8EE57
:100F5800E77A944267EE877A67EEA67A41ED027ADD
:100F680007EE905AF8EEE77A67EE877A67EEA67A88
:100F780041ED017AE3D859462246D0477D6A0021DF
:100F8800D8ED0D6A9FED977A2B1D90489FED906ADA
:100F9800DFED905A2CE0F4EEC67AF1EE10FA80F20A
:100FA800108267EEA57AFDEEE77A17EE902A12B264
:100FB800DBED017A45F8212066EEA77AF4EEC77AD0
:100FC800F1EE10FA40F2F481F4EEC67AF1EE10FA7E
:100FD80080F2F48167EEA57AFDEEE77A17EE902AA3
:100FE80012B243F8212002310BF1080B8C420DD9C3
:100FF800DBED007A66EEA77AF4EEC77AF1EE10FA26
:10100800C9D80246D4E722465946D047CD462C37A0
:10101800BD46BDE8F08FD8F81C20002AF7D0D8F8D4
:1010280004A04FF008094FF0020BBAF1000F7FF44B
:1010380069AF3B62D8F80030FB61002BE7D0664807
:10104800C7F818D002F040FCBBF1020F3B6A3861C8
:1010580000F03C826A4660084946A2EBC402954605
:101068007861C4F35D026846A0EBC405AD46EE4660
:10107800ADEB090D00EB8209EA46ADEB010D09EB7A
:1010880082010EEB820C6D46CAF8081001EB820152
:101098003D62CAF80C100CEB820101EB8202CAE92E
:1010A8000009C5E900ECC5E90212012B00F03883FC
:1010B800022B00F02E82002B40F0F781002C00F06C
:1010C8003F84BBF1020FD8F8242000F06E84396900
:1010D800DAF80C5002EB810E1A46DAF808100EF115
:1010E8000403C7F808A0C7F804B08A46FB60331D9C
:1010F800DFED355AD7F80CB036F92210D8ED0C7A56
:1011080006EE101A33F9221006EE901A3EF9221054
:10111800B8EEC66A07EE101AF8EEE66A3BF9221036
:10112800B8EEC77A26EE256A66EEA56A27EE257A16
:1011380026EE276A66EEA76A27EE277A07EE901A48
:1011480051080232F8EEE77A00EB810C94428CEDFC
:10115800006A09EB810C67EEA57ACCED006A0AEB10
:10116800810C05EB81018CED007A98ED0C7A67EE25
:10117800877AC1ED007ABFD8D7E901BA7A695046B3
:10118800D7E9073198473A6ABBF1020F98ED0D7A13
:10119800D8F82C30D2E900CE00F09E843A690021BC
:1011A800786A03EB82093B6ADFED0E6A9FED086AF5
:1011B80009F10408DFED075A044ED3E902AB031D19
:1011C80075E000BFE8050024000000380280FFFF3A
:1011D80004FF7F3F00FEFF46EC050024D0050024F5
:1011E8000000003404FF7FBFF4EEC67AF1EE10FA77
:1011F80080F28C8167EEA57AFDEEE77A17EE905AB9
:101208002DB240F821500EEB0205D5ED007A67EEBD
:10121800277AF4EEE67AF1EE10FA40F25381F4EE12
:10122800C67AF1EE10FA80F26E8167EEA57AFDEECD
:10123800E77A17EE905A2DB243F821500AEB0205CF
:10124800D5ED007A67EE277AF4EEE67AF1EE10FA39
:1012580040F23681F4EEC67AF1EE10FA80F26A8333
:1012680067EEA57AFDEEE77A17EE905A2DB25A444A
:1012780049F82150D2ED007A67EE277AF4EEE67A43
:10128800F1EE10FA40F22081F4EEC67AF1EE10FA8F
:1012980080F2538367EEA57AFDEEE77A17EE902A7F
:1012A80012B248F8212002318C4240F203814A08E8
:1012B8000CEB82059200D5ED007A67EE277AF4EE02
:1012C800E67AF1EE10FA8FD835469AE7002C3FF40B
:1012D8009AAED8ED0C6A84461FED3F7A0021331D83
:1012E80056F821200CF1080C82F40002A2F5000245
:1012F80007EE902A53F821200231F8EEE77A82F4BB
:1013080000028C42A2F5000267EE877A67EEA67AA1
:101318004CED027A07EE902AF8EEE77A67EE877AC4
:1013280067EEA67A4CED017ADAD859462246D047BC
:101338007D6A0021D8ED0D6A1FED567A2B1DB6483F
:101348009FEDBC6AB54E28E0F4EEC67AF1EE10FACD
:1013580032DAF0EE675AFEEEE45A15EE902ADBED2B
:10136800017A45F8212066EEA77AF4EEC77AF1EE05
:1013780010FA1FD9F4EEC67AF1EE10FA24DAF0EE7C
:10138800675AFEEEE45A15EE902A43F821200231FE
:101398000BF1080B8C427FF639AEDBED007A66EE76
:1013A800A77AF4EEC77AF1EE10FACDD80246D6E75E
:1013B800024616E60246E8E73246D0E747F6FE72EE
:1013C8000FE647F6FE72F3E53246DEE7002C3FF4FF
:1013D8001AAED8ED0C6A01469FED917A0022331DB2
:1013E80056F82250083107EE905A53F8225002322C
:1013F800F8EEE77A944267EE877A67EEA67A41EDCF
:10140800027A07EE905AF8EEE77A67EE877A67EE87
:10141800A67A41ED017AE3D859462246D0477D6A3B
:101428000021D8ED0D6A9FED827A2B1D7D489FED36
:10143800816A7D4E28E0F4EEC67AF1EE10FA32DACF
:10144800F0EE675AFEEEE05A15EE902ADBED017ACF
:1014580045F8212066EEA77AF4EEC77AF1EE10FA85
:101468001DD9F4EEC67AF1EE10FA1ADAF0EE675AE0
:10147800FEEEE05A15EE902A43F8212002310BF1D6
:10148800080B8C427FF6C2ADDBED007A66EEA77AD8
:10149800F4EEC77AF1EE10FACDD80246D6E7024646
:1014A800EAE73246E8E73246D0E77A695046396AD1
:1014B800FB699847D7F818D02C37BD46BDE8F08FA0
:1014C8003546D4E63546B7E63246EAE6A20049464E
:1014D8006508073222F00702ADEB020D7D61684610
:1014E800ADEB020D6A46ADEB090D00EB8509EA4646
:1014F800ADEB010D69460A6002EB850239624A606C
:10150800CAE90009D1E547F6FE7595E647F6FE7586
:1015180077E6002C00F01482BBF1020FD8F82430D3
:1015280000F06B823A69C7F808A003EB820EC7F88F
:1015380004B0DFED3B5A00220EF10405DAE902138C
:10154800FB608A46331DD7F80CB056F82210D8ED48
:101558000C7A07EE101A53F82210B8EEC76A07EE95
:10156800101A5EF82210F8EEC76A07EE101A26EE77
:10157800256A55F82210B8EEC77A66EEA56A26EEF7
:10158800276A27EE257A66EEA76A27EE277A07EEFE
:10159800901A51080232F8EEE77A00EB810C944277
:1015A8008CED006A09EB810C67EEA57ACCED006A38
:1015B8000AEB810C0BEB81018CED007A98ED0C7A2B
:1015C80067EE877AC1ED007ABFD8D7E901BA7A69A0
:1015D8005046D7E9073198473A6ABBF1020FD8ED70
:1015E8000D7AD8F82C30D2E900CE00F0D3823A69CF
:1015F80000217D6A03EB82093B6ADFED0D6A9FEDEE
:101608000D6A09F10408074EDFF81CB0D3E902A3FC
:101618003B622B1D6BE000BF7E0080FF82FF7F00D6
:1016280000000030007E00800082FF7F0000003450
:1016380004FF7FBF04FF7F3FB4EEC67AF1EE10FAD5
:101648006ADAF0EE475AFEEEE05A15EE900A45F8CF
:1016580021000EEB020090ED007A27EE877AB4EEB7
:10166800E67AF1EE10FA53D9B4EEC67AF1EE10FA32
:1016780054DAF0EE475AFEEEE05A15EE900A43F8B7
:1016880021000AEB020090ED007A27EE877AB4EE8B
:10169800E67AF1EE10FA39D9B4EEC67AF1EE10FA1C
:1016A80080F24681F0EE475AFEEEE05A15EE900AB7
:1016B80049F82100386A024492ED007A27EE877AC9
:1016C800B4EEE67AF1EE10FA24D9B4EEC67AF1EE69
:1016D80010FA80F22B81F0EE475AFEEEE05A15EE32
:1016E800902A48F8212002318C427FF6E3AE4A085E
:1016F8000CEB8200920090ED007A27EE877AB4EE28
:10170800E67AF1EE10FA97D83046A0E73046CFE7F0
:101718003046B4E73246E4E7584698E75846AEE71D
:10172800002C00F00D81BBF1020FD8F8243000F036
:101738000D813A690021C7F80CA003EB820C5FED1C
:10174800455AC7F808B00CF1040EDAE902231D4621
:101758009246331D56F82120D8ED0C7A82F4000207
:10176800A2F5000207EE102A53F8212082F40002A5
:10177800B8EEC76AA2F5000226EE256A07EE102A1F
:101788005CF8212082F40002F8EEC76A26EE276A88
:10179800A2F5000266EEA56A07EE102A5EF821207F
:1017A800B8EEC77A82F4000266EEA76AA2F50002D4
:1017B80027EE257A27EE277A07EE902A4A08023183
:1017C800F8EEE77A00EB820B8C428BED006A09EBAE
:1017D800820B67EEA57ACBED006A0AEB820B05EB6C
:1017E80082028BED007A98ED0C7A67EE877AC2ED6B
:1017F800007AAFD8D7E902BA7A695046D7E90731F3
:1018080098473A6ABBF1020FD8ED0D7AD8F82C3018
:10181800D2E900CE00F018813A6900217D6A03EB15
:1018280082093B6A5FED7E6A1FED7E6A09F1040852
:10183800CF4EDFF84CB3D3E902A33B622B1D58E02F
:10184800B4EEC67AF1EE10FA6ADAF0EE475AFEEE16
:10185800E45A15EE900A45F821000EEB020090EDCF
:10186800007A27EE877AB4EEE67AF1EE10FA51D9CB
:10187800B4EEC67AF1EE10FA50DAF0EE475AFEEE00
:10188800E45A15EE900A43F821000AEB020090EDA5
:10189800007A27EE877AB4EEE67AF1EE10FA37D9B5
:1018A800B4EEC67AF1EE10FA3CDAF0EE475AFEEEE4
:1018B800E45A15EE900A49F82100386A024492ED7C
:1018C800007A27EE877AB4EEE67AF1EE10FA23D999
:1018D800B4EEC67AF1EE10FA26DAF0EE475AFEEECA
:1018E800E45A15EE902A48F8212002318C427FF6FE
:1018F800E1AD4A080CEB8200920090ED007A27EEE9
:10190800877AB4EEE67AF1EE10FA99D83046A2E773
:101918003046D0E73046B6E73246E4E75846B2E705
:10192800584698E75846C6E75A46DCE75A46D8E686
:101938005846BDE647F6FE7599E447F6FE72B0E4F0
:101948002246396A5046FB699847B3E598ED0C6A18
:101958000021DFED886A331D56F8212082F4000249
:10196800A2F5000207EE902A53F8212082F4000223
:10197800B8EEE77AA2F5000227EE267A07EE902A5B
:101988004A080231F8EEE77A00EB820527EE067A7C
:1019980009EB82028C4267EEA67A85ED007A67EE43
:1019A800867AC2ED007AD7D826E71A4698ED0C6AEF
:1019B800DFED716A331D36F9221007EE101A33F97C
:1019C800221007EE901AB8EEC77A51080232F8EEE4
:1019D800E77A27EE267A00EB8105944209EB81012C
:1019E80067EEA67A27EE067A67EE867A85ED007AA4
:1019F800C1ED007ADFD8FFF7C1BB98ED0C6A002271
:101A0800DFED5E6A331D56F8221007EE901A53F880
:101A18002210B8EEE77A07EE901A51080232F8EE73
:101A2800E77A27EE267A00EB8105944209EB8101DB
:101A380067EEA67A27EE067A67EE867A85ED007A53
:101A4800C1ED007ADFD8C2E57A6A0021DFED4F6A7E
:101A58009FED4F6A131D46489046494E27E0B4EE65
:101A6800C67AF1EE10FA35DAF0EE475AFEEEE45A8D
:101A780015EE905A724448F8215092ED007A27EEFC
:101A8800877AB4EEE67AF1EE10FA1FD9B4EEC67A88
:101A9800F1EE10FA1CDAF0EE475AFEEEE45A15EEB3
:101AA800902A43F8212002318C427FF603AD4A0880
:101AB8000CEB8205920095ED007A27EE877AB4EE5A
:101AC800E67AF1EE10FACAD80546D3E70246E8E707
:101AD8003246E6E73546CDE77D6A0020DFED2B6A22
:101AE8009FED2B6A2B1DDFED275A274E29E0F4EED8
:101AF800C67AF1EE10FA35DA67EEA57AFDEEE77AE6
:101B080017EE901A09B2724445F82010D2ED007A07
:101B180067EE277AF4EEE67AF1EE10FA20D9F4EEC1
:101B2800C67AF1EE10FA20DA67EEA57AFDEEE77ACA
:101B380017EE902A12B243F82020023084427FF632
:101B4800B9AC42080CEB82019200D1ED007A67EE45
:101B5800277AF4EEE67AF1EE10FAC8D83146D2E7E1
:101B68003246E8E747F6FE71CDE747F6FE72E2E750
:101B78007E0080FF000000340000003800000030C4
:101B880082FF7F0000FEFF460280FFFF04FF7FBF49
:101B980004FF7F3F7A6A00215FED046A1FED046A43
:101BA800131D20489046204E27E0B4EEC67AF1EE89
:101BB80010FA35DAF0EE475AFEEEE05A15EE905A72
:101BC800724448F8215092ED007A27EE877AB4EEF5
:101BD800E67AF1EE10FA1FD9B4EEC67AF1EE10FAF1
:101BE8001CDAF0EE475AFEEEE05A15EE902A43F85A
:101BF800212002318C427FF65DAC4A080CEB82054D
:101C0800920095ED007A27EE877AB4EEE67AF1EE47
:101C180010FACAD80546D3E70246E8E73246E6E7AF
:101C28003546CDE7007E00800082FF7F30B5184C36
:101C380085B01546046004F1080EEC460FC98EE81D
:101C48000F00D4ED047AF5EEC07A8CE80F00F1EEBF
:101C580010FA1ADDB7EE006A94ED057A27EE277AB6
:101C6800C6EE276A84ED0D7AC4ED0C6A6DB1204684
:101C780040F8185F01F0BEFD064903690020064AD6
:101C88002162A262E36005B030BD012005B030BD1D
:101C9800D005002400200030000000300068083023
:101CA800704700BFB1F5807F03680A4628BF4FF42C
:101CB8008072B1F5807F9A6094BF00200120704740
:101CC8000068183001F0EEBD30B5046883B00848EC
:101CD8000D46A368A26A216A9B00009004F11800CF
:101CE80001F08AFD0020C4E9000503B030BD00BF43
:101CF800C50E0008064B302003214FF07E52C3E981
:101D08000201002000211A615A61C3E906017047E7
:101D1800D005002400B583B04FF0000E4FF0030C3F
:101D28004274ADF80410BDF8043080F810E0A0F853
:101D380002C0038003B05DF804FB00BF2DE9F04F3B
:101D48004FF00008DFF800938FB0B94C03700646D7
:101D5800B84B174642600D46202241464846C4F813
:101D68006831C4F86491CDE90388CDE90588CDE9E7
:101D78000788CDE90988CDE90B88FEF797FA202274
:101D8800414604F5A170C4F83181C4F83581C4F81E
:101D98003981C4F83D81FEF789FA84F83071736897
:101DA80084F84882002B00F087814346484604F5B2
:101DB800987105F1100AC6460197EF1855F803B057
:101DC800E2180EF1010ED7F80CC0D7F80490D7F836
:101DD800088044F803B0C2F80CC04FF0000CC2F8F9
:101DE8000490C2F808803F8A20F802CB17821AF8BC
:101DF800032001F8012F62B172684FF00107123316
:101E0800964584F84872D8D3019F00220123FFB277
:101E18000CE0776812337745CFD894F84832019FA1
:101E2800002BFFB206BF01220323012384F881217E
:101E380000203278C4F8983100237F49C4F87431FF
:101E480084F8803184F88831C4F88471C4E9673330
:101E58004FF48023C4E95B1308210123C4E95E31F0
:101E68000021C4E964019AB100200121013A84F8F3
:101E7800A431C4E96C01082A0CD8DFE812F0FA0092
:101E8800F500F000EB00D400CF00C900C200BB0091
:101E980084F8A421694802F0EDFD034608B1FFBEAD
:101EA800FEE703A96548039302F040FF002840F0CD
:101EB8009F80042340F2FF720B90CDE9092394F828
:101EC8003031002B48D0DFF884A10746DFF8808145
:101ED800AAF58E750AF14C096B7B072B07D8DFE84A
:101EE80003F081847E7B78753E0407230893281FBE
:101EF80000F032FB2B7B042B39DC022B00F3D28061
:101F080000F0CC8000238AF8003015F8043C002B40
:101F180040D0022B00F0B280012B40F0DD8015F894
:101F2800033C012B00F0C680002B454B18BF002353
:101F3800069306A958F8043B4846079302F006FAA8
:101F4800002840F0C180013794F830210AF1010AD5
:101F58001235FBB29A42BFD80FB0BDE8F08F062306
:101F6800281F089300F0F8FA2B7B042BC5DD032308
:101F78008AF80030AB4600265846013600F0ECFAE5
:101F88009AF800300BF1040BB342F5DC15F8043C69
:101F9800002BBED115F8033C062B00F08780072BD9
:101FA80000F09880022B00F09980032B00F09880B5
:101FB800002B00F09980012B00F09480042B00F096
:101FC8009580052B1F4B18BF0023B1E70523089305
:101FD8008DE7042308938AE70323089387E70223FE
:101FE800089384E70023089381E7012308937EE799
:101FF800FFBEFEE740F2FF324FF4A073C4E96A2344
:1020080048E740F2FF124FF49073C4E96A2341E7AE
:10201800FF224FF48073C4E96A233BE77F22E02361
:10202800C4E96A2336E73F22C023C4E96A2331E7BB
:1020380008060024404000300020024074070024B5
:102048000002B0250000B84F0040003028070024E7
:10205800ECFE00081F22A023C4E96A231AE70F2216
:102068008023C4E96A2315E707226023C4E96A23A9
:1020780010E703224023C4E96A230BE715F8033C61
:10208800042B15D0052B1BD0E3B1012B1ED0022B3E
:102098001ED0032B164B18BF002349E701238AF8EB
:1020A800003067E702238AF8003063E7114B3FE707
:1020B800114B3DE7114B3BE7FFB201220323B5E685
:1020C8000F4B35E70F4B33E7FFBEFEE70E4B2FE70D
:1020D8000E4B2DE70E4B2BE7002329E70D4B27E787
:1020E8000D4B25E70D4B23E70D4B21E70D4B1FE764
:1020F800002090360800900C1000C0102000F0144A
:10210800000180210004002A0008302E00106032EF
:102118008000501D0040C03A0080F03E0000524749
:10212800000021430000844B10B5084C40F2FF72B8
:102138004FF00111204602F0A7FD14F83C2C54F88A
:10214800081C2046BDE8104002F020BB740700249C
:10215800204B02689A4200D070471F4B00221F484C
:10216800D3F8D81030B51E4C83B041F02001C4F824
:10217800D001092004F5E875C4E97502C3F8D81040
:102188004FF48060D3F8D81094F8483201F0200159
:1021980083F0010301911B02C4E977204FF400602A
:1021A800C4F8EC31019B4FF40053C4F8E40128460D
:1021B800C4F8E831C4E97C2202F0D6FF08B1FFBEBA
:1021C800FEE704F5B673C4F8B851C4F8083203B092
:1021D80030BD00BF002002400044025840000240C9
:1021E80008060024014803F051BB00BFD8070024AB
:1021F800414B02689A4200D070472DE9F0473F4DA5
:1022080095F848320BB9BDE8F08795F83021002AD7
:1022180048D005F10C0805F5A17605F59877002456
:1022280014E003F001013380A8F1080017F811AC9D
:1022380000F070FABAF1010F23D895F83021013473
:1022480008F112080236A3B29A4229D917F8013FB9
:10225800002BF4D0D5F864310021327833F814001B
:10226800D5F8683103EB041323F8120033883A7861
:1022780001339BB29A425FFA83F9D2D80B4689465A
:10228800D1E7C9F34001A8F1040000F043FABAF11C
:10229800020FC9F38001D0D0404600F03BFACCE7EA
:1022A80095F8483283F001031548092100221B02E2
:1022B8004FF48064C5F8D821C5F8EC314FF40053C9
:1022C800C5F8DC21C5F8E831C5E974014FF40061AF
:1022D8000C48C5E97841C5E97C2202F045FF08B100
:1022E800FFBEFEE795F83021D5F864110648BDE831
:1022F800F04702F04BBA00BF002002400806002455
:1023080040000240D807002474070024704700BF2B
:1023180010B592B00180ADF80410C9B2149C0B2915
:10232800C460C0E901232FD090F801E08446BEF1D3
:102338000F0F29D8022A39D0032A04D0A2F10102AA
:10234800B2FA82F25209012B0E9205D0A3F10203D0
:10235800B3FA83F35B095B00022C0F9306D0032CBE
:1023680004D0A4F10104B4FA84F464090A2910948D
:102378000CD900231846CCF8103001230DA903FA14
:102388000EF30D9303F096FC12B010BD5B4B4A1E82
:1023980003EB8123CCF81030092A00F29F80DFE894
:1023A80002F08E7F70615243342516071122CAE766
:1023B800534B5448D3F8E02042F48062C3F8E0203D
:1023C800D3F8E03003F480630C930C9BD5E74C4BB7
:1023D8004D48D3F8E02042F40072C3F8E020D3F867
:1023E800E03003F400730B930B9BC6E7444B47485C
:1023F800D3F8E02042F48072C3F8E020D3F8E0304C
:1024080003F480730A930A9BB7E73D4B4048D3F81F
:10241800E02042F08002C3F8E020D3F8E03003F077
:1024280080030993099BA8E7354B3A48D3F8E02085
:1024380042F04002C3F8E020D3F8E03003F0400354
:102448000893089B99E72E4B3348D3F8E02042F0D5
:102458002002C3F8E020D3F8E03003F0200307930C
:10246800079B8AE7264B2D48D3F8E02042F010025C
:10247800C3F8E020D3F8E03003F010030693069B7E
:102488007BE71F4B2648D3F8E02042F00802C3F848
:10249800E020D3F8E03003F008030593059B6CE7D0
:1024A800174B2048D3F8E02042F00402C3F8E0209C
:1024B800D3F8E03003F004030493049B5DE7104B6A
:1024C8001948D3F8E02042F00202C3F8E020D3F81C
:1024D800E03003F002030393039B4EE7084B0748E1
:1024E800D3F8E02042F00102C3F8E020D3F8E0304E
:1024F80003F001030293029B3FE700BF000002586C
:1025080000440258002802580024025800200258AB
:10251800001C0258001802580014025800100258F3
:10252800000C0258000802580004025808B501219E
:1025380043780069994089B203F0F6FE003818BF65
:10254800012008BD01230A464178006903FA01F118
:1025580089B203F0EFBE00BF8378022B30B5044682
:102568008FB039D0032B00F0D180A3F10102B2FA69
:1025780082F25209E3780A92012B05D0A3F10203F3
:10258800B3FA83F35B095B0000222046CDE90B32E6
:1025980001F056FD0546204601F05AFD23780990C2
:1025A800082B13D8DFE803F02D405366798C9F057C
:1025B8001A00574BD3F8E02042F08002C3F8E0201D
:1025C800D3F8E03003F080030793079B09A9284656
:1025D80003F070FB0FB030BD1122CBE74C4B09A9BB
:1025E8002846D3F8E02042F48072C3F8E020D3F8FC
:1025F800E03003F480730893089B03F05BFB0FB093
:1026080030BD434B09A92846D3F8E02042F0010227
:10261800C3F8E020D3F8E03003F001030093009BF7
:1026280003F048FB0FB030BD394B09A92846D3F851
:10263800E02042F00202C3F8E020D3F8E03003F0D3
:1026480002030193019B03F035FB0FB030BD304B03
:1026580009A92846D3F8E02042F00402C3F8E02094
:10266800D3F8E03003F004030293029B03F022FB4B
:102678000FB030BD264B09A92846D3F8E02042F018
:102688000802C3F8E020D3F8E03003F0080303930E
:10269800039B03F00FFB0FB030BD1D4B09A9284663
:1026A800D3F8E02042F01002C3F8E020D3F8E0307D
:1026B80003F010030493049B03F0FCFA0FB030BD41
:1026C800134B09A92846D3F8E02042F02002C3F8AA
:1026D800E020D3F8E03003F020030593059B03F0D6
:1026E800E9FA0FB030BD0A4B09A92846D3F8E02013
:1026F80042F04002C3F8E020D3F8E03003F0400392
:102708000693069B03F0D6FA0FB030BD1A4631E7A0
:102718000044025870B506460D4601F091FC044687
:10272800304601F095FC2A1E0146204618BF0122BA
:10273800BDE8704003F0FEBD70B5002386B01222DC
:1027480004460393CDE901230368032B01D804232E
:102758000493261D0634304601F072FC05463046C7
:1027680001F076FC034669462846009303F0A2FA76
:10277800204601F065FC034620461C4601F068FC33
:10278800694603462046009303F094FA06B070BDEC
:10279800634A0368934210B58CB028D0614A9342CB
:1027A80058D0614A934200F09480604A934201D025
:1027B8000CB010BD5E4C5F48D4F8E03043F0020323
:1027C800C4F8E030D4F8E03003F002030A930A9B1F
:1027D800FFF7B2FFD4F8F43043F08003C4F8F430C4
:1027E800D4F8F43003F080030B930B9BE0E7504CD4
:1027F8005148D4F8E03043F00203C4F8E030D4F88C
:10280800E03003F002030193019BFFF795FFD4F832
:10281800E83000221F2043F400131146C4F8E830C2
:10282800D4F8E83003F400130293029BD4F8D830AC
:1028380043F00103C4F8D830D4F8D83003F00103CA
:102848000393039B02F0DEFA1F200CB0BDE8104092
:1028580002F014BB364C3948D4F8E03043F080031A
:10286800C4F8E030D4F8E03003F080030493049B0C
:10287800D4F8E03043F00203C4F8E030D4F8E03094
:1028880003F002030593059BFFF756FFD4F8E830E1
:102898000022212043F480031146C4F8E830D4F81C
:1028A800E83003F480030693069BD4F8D83043F04D
:1028B8000103C4F8D830D4F8D83003F001030793E3
:1028C800079B02F09FFA21200CB0BDE8104002F0EF
:1028D800D5BA1B48FFF730FF154B00224820D3F824
:1028E800E840114644F40004C3F8E840D3F8E8404F
:1028F80004F400040894089CD3F8D84044F0010478
:10290800C3F8D840D3F8D83003F001030993099BE2
:1029180002F078FA48200CB0BDE8104002F0AEBAD8
:102928000054004000580040005C0040001C005863
:1029380000440258E00A0024580800243009002402
:10294800080A0024F0B5002287B0184B1021CDF8F2
:1029580002206F46CDF806209C46CDF80A206E4628
:10296800CDF80E200CF11805CDF812200CF1300E20
:10297800ADF81620FF220E4B6C46ADF800101A7009
:102988000FCFACE80F0097E803008CE803000FCEE8
:102998000FC596E8030085E803000FCCAEE80F00EA
:1029A80094E803008EE8030007B0F0BD0800002497
:1029B8005408002410B5EFF3108472B6074B1A7848
:1029C800120602D504B962B610BD1B78D820044A95
:1029D8005BB200FB032002F059FFF3E75408002420
:1029E8006C080024014804F029BB00BFE408002457
:1029F800014804F023BB00BFBC090024014804F0CF
:102A08001DBB00BF940A00242DE9F0410F68D825AA
:102A18003C4E84B007FB05F5032F06EB0503036066
:102A280058DCCA680C46012A54D84FD020689C4606
:102A380061684FF0D808A2680DF1100EE36808FB32
:102A48000768ACE80F00304B227C8CF80020D8F8DF
:102A580008C00FCB0EE90F000EEB8703BCF1010F86
:102A680053F8103CC8F88C3042D0BCF1020F35D076
:102A7800BCF1000F08D101F06FF9244B98420CBF4C
:102A8800234B244BC8F890308C35D823217C002266
:102A980003FB0763012035444900C3E926022846A1
:102AA800C3F89410C3E92822C3E92A2204F0BEF827
:102AB80080B90146284604F0CDFA58B9014628469F
:102AC80004F0F2FA003818BF012004E00A7C103A3A
:102AD800672AABD9012004B0BDE8F08101F03CF9C8
:102AE8000A4B98420CBF0C4B0C4BC8F89030CBE704
:102AF80001F032F9054B98420CBF094B094BC8F855
:102B08009030C1E75808002470FE0008000E27071F
:102B18005F4390608A62E030200BA0101A09801091
:102B28002D0FB0303211D0202DE9F041D0F80080BF
:102B380082B00D4617461E4608F18C04204604F064
:102B480085FA2028FAD1D8F80C3073B96D002046E0
:102B5800089C33463A46A9B2009404F0BDF8003800
:102B680018BF012002B0BDE8F081089B3246394603
:102B7800204604F07DF9F2E7044B10221A7483F81A
:102B8800E82083F8C02183F8982270475808002469
:102B980030B5002395B04FF48071062204460B939C
:102BA80006921393CDE90C13CDE90E33CDE9113319
:102BB80001F0D4F807282AD004F1100541F2883230
:102BC80006A9284605F0A2F828B1012384F85C304C
:102BD800012015B030BD0223102206A92846029212
:102BE8000022CDE90033012303934FF48003CDE99C
:102BF800042305224FF0807306926A460F9341F230
:102C0800883305F013FA0028DFD115B030BD03234F
:102C180084F85C30DCE700BF70B50023A4B04FF047
:102C280080724FF480750446ADF806301B93CDE9E9
:102C38001E320122CDE91C53CDE92023CDE92233F0
:102C4800002942D0F02300F1100516AEADF8063089
:102C5800C02341F2883231462846169305F056F8CB
:102C680028B1012384F85C30012024B070BD41F202
:102C780088320DF10601284605F0B6F8034600280B
:102C8800EFD14FF4807105222846012508921022C1
:102C980010930D93159302930595CDE90E139FEDAF
:102CA8001E7B4FF08071CDE91333119141F28833C7
:102CB80008A9CDE9035202AA8DED067B05F0B6F905
:102CC8000028D2D084F85C50CEE700F1100516AE8B
:102CD800612341F2883231462846169305F016F8EA
:102CE8000028BED141F288320DF10601284605F0D0
:102CF80009F90028B5D1BDF80630204623F078033D
:102D080043F04003ADF80630FFF742FF00289FD09C
:102D1800A7E700BFAFF300800000000000004000FC
:102D28002DE9F04F00234FF4807601254FF080788D
:102D380004462DED028BABB08DF807302193139329
:102D48001B9322961C95CDF89480CDE92333CDE9C9
:102D58002653CDE92833CDE91463CDE91633CDE9FF
:102D6800193306230E9300F0F9FF072808D004F161
:102D7800100741F288320EA9384604F0C7FF40B167
:102D8800012384F85C3001202BB0BDEC028BBDE838
:102D9800F08F02234FF010094FF0050A08AA0EA978
:102DA80038460B95CDF85C80CDF82890CDF838A042
:102DB8009FED298BCDE9083341F288338DED0C8BDB
:102DC80005F034F90028DBD141F2883238461CA9D5
:102DD80004F09CFF0028D3D14FF0400B41F2883219
:102DE8000DF1070138468DF807B004F0FDFF002803
:102DF800C6D141F288331CA902AA3846CDF870A082
:102E0800CDF89480CDE902BBCDE904958DED068B14
:102E180005F00CF903460028B2D1139308AA1B93B6
:102E28000EA938461496CDF838A0CDF85C80CDF8B8
:102E380028900B95CDE91533CDE91933CDE908353F
:102E480041F288338DED0C8B05F0F0F800289BD00B
:102E580084F85C5097E700BF0000000000004000C5
:102E68002DE9F0435C4CA3B00E46046000F076FFF9
:102E7800072800F0A480306825467168B26807C545
:102E8800B389284620F8043B267B677B04F020FFA3
:102E9800E0B9524B012E4FF00108E06123610CBFED
:102EA8004FF400034FF48013C4E9058893FAA3F3A1
:102EB800B3FA83F34FF48079013BC4F82490C4E952
:102EC8000B00281D236204F095FE38B1012384F815
:102ED8005C300126304623B0BDE8F08366230B90B2
:102EE800139041F2883206A90693CDE90C90CDE9FA
:102EF8000E00CDE91100281D04F008FF0028E5D1D7
:102F0800992341F2883206A9281D069304F0FEFE93
:102F18000028DBD105231C9019906A4614934FF0C2
:102F28008073219014A91D931023CDF80C8002936F
:102F380041F288339FED247BCDE91A90CDE91F003B
:102F4800CDE90008281D8DED047B05F06FF80028F9
:102F5800BCD131462046FFF75FFE0028B6D1204697
:102F6800FFF7DEFE06460028B0D1002FB2D1EB23D2
:102F780006AA14A9281D14934FF44063CDF868904D
:102F88001B934FF40053189617934FF440431C9328
:102F9800A0231693062319934FF080539FED0C7BC3
:102FA80021934FF04073CDE91F661D938DED067B8D
:102FB80005F0CAF800288DD084F85C8089E70323DF
:102FC80084F85C3085E700BF000000000000400086
:102FD8000000000000000000B80B00240050005260
:102FE8002DE9F04F8FB0414B0024026800AF9A42A0
:102FF8007C63C7E90944C7E90B4403D03C37BD46A5
:10300800BDE8F08F3A4B40F609213A48EA46D3F832
:10301800D42007F11C0607F1220B4FF0020942F4F5
:1030280080424FF00308C3F8D420D3F8D42002F428
:103038008042BA60BA68D3F8E02042F04002C3F890
:10304800E020D3F8E02002F04002FA60FA68D3F8F2
:10305800E02042F02002C3F8E020D3F8E02002F09C
:1030680020023A613A69D3F8E02042F01002C3F82E
:10307800E020D3F8E02002F010027A617A69D3F8F0
:10308800E02042F00202C3F8E020D3F8E030F86113
:1030980003F002033984BB61174B7B60BB697B6813
:1030A80053F8040F7B6000F0CBFF7B680546186877
:1030B80000F0CEFF16F8013B786207F1240128469C
:1030C800C7F830807B63C7E90A9402F0F3FD5E45D8
:1030D800E5D100225C20114601F094FE5C2001F04D
:1030E800CDFE3C37D546BD46BDE8F08F00500052B6
:1030F800004402580A0A0909140C0024114B0268FA
:103108009A4200D07047104A70B5D2F8D4300F4CAC
:1031180023F4804304F11806C2F8D43054F8040F9D
:1031280000F08EFF0546206800F092FF0146284611
:1031380002F0CEFFB442F1D15C20BDE8704001F04E
:10314800ABBE00BF0050005200440258140C0024CB
:10315800014805F087B800BFC80B0024084B1A1DAA
:10316800981D03F1080110B49C1C9A6603F10A0229
:10317800C3E91834C3E91B015DF8044B5A6770476B
:10318800B80B00242DE9F043821D05468BB0031DC2
:1031980005F10A010830CDE9052305F10C02AB69F8
:1031A800CDE907010992002B3ED0EB69B3FA83F809
:1031B8004FEA58180123022205AE0AAF4FF006095C
:1031C8000393CDE9012313E02B680BB3012B02D144
:1031D80022B30A230493204600F03AFF0346204610
:1031E800009300F02DFF694602F064FDBE4212D044
:1031F80056F8044B2B7922789342E5D169796378A4
:103208009942E1D1B8F1000FF0D02B68002BDDD145
:10321800CDF81090DFE70BB0BDE8F0836378022BA0
:103228000CBF08230A23D5E74FF00108C2E700BF07
:10323800A04A0368934270B505468AB07FD0203211
:1032480093427CD09C4A934204D02032934201D0CE
:103258000AB070BD994C9A48D4F8E03043F00103A5
:10326800C4F8E030D4F8E03003F001030593059B7F
:10327800D4F8E03043F00803C4F8E030D4F8E03084
:1032880003F008030693069BD4F8E03043F04003AC
:10329800C4F8E030D4F8E03003F040030793079B0C
:1032A800D4F8F03043F40003C4F8F030D4F8F03028
:1032B80003F400030893089BFFF764FFD4F8D820B1
:1032C800804B42F001022968D3F85C02C4F8D82088
:1032D800D4F8D82002F001020992774A099C914259
:1032E80000F0AB80D3F88022013A18BF0122920186
:1032F800002840F0CC807448582103F22C4403F590
:103308004775C3F82C0400232046C4E901124FF482
:1033180080524FF48061636262614FF48042C4E975
:1033280003314FF48073C4E906234FF4003323625A
:1033380001F01AFF002800F09580FFBEFEE75F4C01
:10334800604ED4F8E030304643F00103C4F8E03072
:10335800D4F8E03003F001030093009BD4F8E03088
:1033680043F01003C4F8E030D4F8E03003F0100361
:103378000193019BD4F8E03043F04003C4F8E030F7
:10338800D4F8E03003F040030293029BD4F8F03005
:1033980043F48003C4F8F030D4F8F03003F4800329
:1033A8000393039BFFF7EEFED4F8D830296843F067
:1033B8000103404A3068C4F8D8309142D4F8D83074
:1033C80003F001030493049B27D0736A013B18BFE1
:1033D80001239B01002852D13B4A06F5E874582185
:1033E800C036C6F8102100222046C4E901134FF464
:1033F80080534FF48061626263614FF48073C4E963
:1034080003214FF48042C4E906234FF400332362BA
:1034180001F0AAFE08B3FFBEFEE7336A013B18BFFE
:1034280001239B0118BB02F5284206F5AC7457210D
:1034380028360C32C6F83021D5E7D3F87C22013A79
:1034480018BF0122920158BB2048572103F56D741B
:1034580003F52175C3F8B40355E7C6E92044A6630C
:103468000AB070BDC5E92044A5630AB070BD184A0A
:1034780006F5AC7459212836C6F83021B3E7154A49
:1034880006F5E8745A21C036C6F81021ABE7114892
:103498005A2103F22C4403F54775C3F82C0432E78C
:1034A8000B48592103F56D7403F52175C3F8B4036E
:1034B80029E700BF04580140045C01400044025859
:1034C8008C0E0024300C002428000240100002401A
:1034D8005800024070000240014802F0D7B900BF0E
:1034E800880D0024014802F0D1B900BF000E002465
:1034F800014802F0CBB900BFE40F0024014802F0F4
:10350800C5B900BF5C1000241A4A0368934210B47E
:103518000BD02032934208D0174A934216D020325B
:10352800934213D05DF8044B7047144B0022D3F834
:103538005442C3F85822D3E99201002CF2D0D3F8B0
:10354800502223465DF8044B520818470B4B0022C3
:10355800D3F8B044D3F8A404D3F8A814C3F8B42417
:10356800002CDFD0D3F8AC2423465DF8044B520876
:10357800184700BF04580140045C0140300C002487
:10358800184A0368934210B40BD02032934208D0F3
:10359800154A934217D02032934214D05DF8044B59
:1035A8007047124BD3E99424D3E992015208C3F827
:1035B8005822002CF2D0234601EB820100EB820056
:1035C8005DF8044B1847094BD3F8AC24D3F8B04442
:1035D8005208D3F8A404D3F8A814C3F8B424002CD0
:1035E800E9D1DBE704580140045C0140300C0024B9
:1035F8002DE9F04F0C684FF41777794E87B004FB2C
:1036080007F7012C06EB0708C0F8008000F39F803D
:103618004FF0000907F512730D468E4646F80390E1
:103628003344C446C3F80490C8F8509268A3D3E959
:10363800002369A1D1E90001CDE9022306AB03EB20
:103648008403CDE9040153F810BC53F808ACBEE874
:103658000F00ACE80F00BEE80F00ACE80F009EE8D2
:103668000300C8F828B0C8F8C0A08CE803002B698C
:10367800042B0DD8DFE803F07F89930376004FF41D
:1036880017734BF6803203FB04639A64C3F8E02097
:10369800AA69296A002A56D000294FF0010214BFEE
:1036A800032102214FF4177303FB0463C3E90B12D0
:1036B800EA69696A002A4ED1003918BF01214FF41E
:1036C800177303FB0463C3E931126B69022B06D835
:1036D800444A12F80390444A52F8233001934FF4B5
:1036E80017730022414907F1280004FB03F3304413
:1036F80003F1380E03F1500C03F1D00503F1E8048F
:1037080041F80E2033448E44CEF804205A645A639C
:1037180041F80C208C44CCF80420DA654A510D4459
:103728006A60C3F8DC20C3F8CC200A510C44019924
:103738006260C3F8F42002234A4606F0BFFE002860
:1037480037D0FFBEFEE7003918BF0121AAE70120E4
:1037580007B0BDE8F08F00294FF0010214BF032124
:103768000221ACE74FF41773214A03FB04639A6400
:10377800C3F8E0208CE74FF417734FF4FA5203FBB9
:1037880004639A64C3F8E02082E74FF417734FF498
:103798007A5203FB04639A64C3F8E02078E74FF495
:1037A80017734FF4FA4203FB04639A64C3F8E020EA
:1037B8006EE707F1C00002234A460199304406F03B
:1037C8007DFE0028C4D0FFBEFEE700BFAFF3008037
:1037D80004580140045C014024580140245C014025
:1037E800300C00244CFF000840FF0008340C002473
:1037F8000077010000687047F8B504689DB20F466D
:103808001646C4F85032069BC4F85432A369012BFB
:10381800C4E9921222D0636A2A46012B0FD031469E
:1038280004F1C00006F0F8FE236A2A46012B0ED0E8
:10383800314604F1280006F0EFFE0020F8BD04F13F
:10384800C00006F073FF236A2A46012BF0D13946DF
:1038580004F1280006F06AFF0020F8BD236A2A4612
:10386800012B0FD0314604F1280006F0D5FE636A1B
:103878002A46012B0ED0314604F1C00006F0CCFEDA
:103888000020F8BD04F1280006F050FF636A2A46BC
:10389800012BF0D1394604F1C00006F047FF0020A3
:1038A800F8BD00BF03681B69042B05D8044A02EB66
:1038B800830393ED000A70479FED020A704700BF2B
:1038C8002CFF000800803B470368D3F85802704774
:1038D800704700BF08B500F0C3FCBDE8084001F020
:1038E80055BB00BF064808B503680BB102F026FDBA
:1038F800044803681BB1BDE8084003F001BC08BDDB
:10390800F8140024F0100024064808B503680BB129
:1039180002F014FD044803681BB1BDE8084003F039
:10392800EFBB08BDF8140024F0100024064808B5C1
:1039380003680BB102F002FD044803681BB1BDE83F
:10394800084003F0DDBB08BDF8140024F010002483
:10395800364BDA6A520062D59A6A9A6A9A6A9B6A00
:10396800180600D500BE314B9B6A990600D500BEEB
:103978002E4B9B6ADA0600D500BE2C4B9B6A1B07B0
:1039880000D500BE294B9B6A980700D500BE274B7F
:103998009B6AD90700D500BE244B9B6A1A0400D540
:1039A80000BE224B9B6A9B0400D500BE1F4B9B6A3E
:1039B800D80400D500BE1D4B9B6A190500D500BE72
:1039C8001A4B9B6A5A0500D500BE184B9B6A9B058B
:1039D80000D500BE154B9B6AD80500D500BE134B19
:1039E8009B6A990100D500BE104B9B6ADA0100D58D
:1039F80000BE0E4B9B6A1B0300D500BE0B4B9B6A97
:103A0800580300D500BE094B9B6A990300D500BE38
:103A1800064B9B6ADA0306D400BE00BEFEE7DB6AEB
:103A28009B07FAD5F8E700BEF6E700BF00ED00E017
:103A380000F028BC0A4B9B6803F17843B3F5003FBC
:103A48000BD3084B986848B19868012806D0986845
:103A5800022803D09868032070470120704700BFF0
:103A680000ED00E0000080382DE9F041CEB00446BA
:103A78004C2200210AA8FCF719FC2022002102A8E8
:103A8800FCF714FCBC2200211EA8FCF70FFC022046
:103A980003F0BEFF2368012B4FF0000350D0504ABB
:103AA80002250193C820D16A4E4B21F00101D16251
:103AB800D26A02F0010201929A6942F440429A6184
:103AC8009B6903F440430193019B464A9369990417
:103AD800FCD545490224002201268B6A4FF00408D0
:103AE800082723F0030323438B62052316900AA8B3
:103AF80018934FF48033109617941994CDF8548086
:103B08001A97CDE91B222122CDE91344CDE90A23D6
:103B180004F0B0FC00B1FEE7402329463F224FF4F1
:103B280080650993049002A805970895CDE90633A6
:103B38000323CDE9022304F0B7FF0346B8B1FEE73B
:103B4800284A04250093F0209169254B41F440410F
:103B58009161926902F440420092DA6A42F00102ED
:103B6800DA62DB6A03F001030093009BADE74FF4D0
:103B780080324FF4805122941EA846922F94339499
:103B8800062435912197CDF8A8802C951F96239669
:103B9800CDE92531CDE93032CDE92D3300224FF47E
:103BA8008071CDE93B334FF4401343911021CDE9A7
:103BB8003E2340F2271280232991249334930C2327
:103BC800CDE92742202220932B92084A1E9205F025
:103BD800B5F900B1FEE703F041FF4EB0BDE8F08152
:103BE8000004005800480258004402580F130F03FD
:103BF80070B584B0012401F077F94FF480764FF066
:103C08004052194B6846ADF80040019200250293D6
:103C1800039601F087F9192368468DF80F408DF84F
:103C280008304FF04043ADF80D6001938DF8014026
:103C38008DF80A5001F076F902230B2268468DF8B8
:103C48000F508DF801304FF062538DF80820019322
:103C5800ADF80D408DF80A4001F064F9042001F038
:103C680051F904B070BD00BF0E00010330B50C4619
:103C7800054685B0D1E9000185E8030000F0C0FAE7
:103C8800A379A3B30AF016F8FEF75CFE08F09EFCD1
:103C980009F0FCFC23798BBB63799BB1BFF34F8F91
:103CA800BFF36F8F2A4B0022C3F85022BFF34F8F08
:103CB800BFF36F8F5A6942F400325A61BFF34F8FD6
:103CC800BFF36F8F4FF0FF320023002400256946B1
:103CD800204802928DF80C30CDE9004509F072F8C1
:103CE8001C4809F0D7F808F0E5F805B030BD2846BB
:103CF800FFF7BAFE2846FFF77BFFC3E71449002306
:103D0800C1F88430BFF34F8FD1F8805043F6E07E7E
:103D1800C5F34E3CC5F3C9054FEA4C1C0CEA0E002E
:103D28002B4640EA8372013BC1F860225A1CF8D145
:103D3800ACF1200C1CF1200FF0D1BFF34F8F4B6971
:103D480043F480334B61BFF34F8FBFF36F8FA3E70B
:103D580000ED00E0E810002404F0D8BF1C4B9B687D
:103D680003F17842B2F5003F25D3B3F5803F20D365
:103D780003F16042B2F5003F1FD303F15C42B2F594
:103D8800002F1CD303F17042B2F5902F19D303F121
:103D98004842B2F5803F16D303F18042B2F1806FFA
:103DA80013D303F1E043B3F5000F34BF0720082015
:103DB8007047012070470020704702207047032099
:103DC800704704207047052070470620704700BFE1
:103DD80000ED00E003480023034A044903600BF0A8
:103DE800EDBE00BFE810002404000024D938000804
:103DF80010B4204C83B0204B0022D4F888001F490F
:103E080040F47000C4F8880018681D4C40F00100A8
:103E180018601A611868014019609A61DA611A62BB
:103E28009A62DA621A635A639A63DA631A645A64A2
:103E3800196821F4802119601A66D3F8DC2042F051
:103E48006042C3F8DC20D3F8DC300193019B23687F
:103E58006FF30F03B3F1005F03D20A4B0122C3F8DB
:103E68000821044B4FF000629A6003B05DF8044BE0
:103E7800704700BF00ED00E0004402587FEDF6EA0D
:103E88000010005C0080005100F57171D0F8040446
:103E980007F00EBCC1EBC10300EB8303D0F80404A8
:103EA800D3F8082207F032BCC1EBC10300EB83034F
:103EB800D0F804049A6C07F063BC00BFD0F804047F
:103EC80007F0FEBCC16810B5044619B1022900D03C
:103ED800FEE70121D4F8040407F0DCFCD4F804045C
:103EE800BDE8104007F0AEBC10B50446D0F8040495
:103EF80007F0D4FC2268D2F8003E43F00103C2F870
:103F0800003E236A23B1034A136943F00603136191
:103F180010BD00BF00ED00E0D0F8040407F0C8BCF5
:103F2800D0F8040407F0DCBCD0F8040407F0D6BCD1
:103F3800D0F8040407F0D6BCD0F8040407F0D4BCC9
:103F48009446D0F898021A4608B5634603F050FC28
:103F580018B102280CBF0120022008BD08B5D0F80E
:103F6800980203F0D3FC18B102280CBF01200220EC
:103F780008BD00BF08B5D0F8980203F00BFD18B1D2
:103F880002280CBF0120022008BD00BF0A06D0F895
:103F9800983206D4C1EBC10103EB810393F8FE010B
:103FA800704701F07F01C1EBC10103EB810393F876
:103FB8003E00704708B5D0F8980203F003FC18B12A
:103FC80002280CBF0120022008BD00BF08B5D0F8A8
:103FD800980203F073FC18B102280CBF01200220DC
:103FE80008BD00BF08B5D0F8980203F03FFC18B12F
:103FF80002280CBF0120022008BD00BFD0F8C00273
:1040080007F012BFD0F8C00207F026BFD0F8C002F0
:1040180007F02EBF704700BFD0F8C00207F014BFEA
:10402800D0F8C00207F014BF08B5D0F8D00302F0EA
:1040380037FD18B102280CBF0120022008BD00BFBF
:10404800024B027853F82200704700BF80FF000837
:10405800024B427833F81200704700BF60FF000837
:104068008CB00A2814D8DFE800F023313F4D5B6993
:104078007785930615004D4BD3F8E02042F4007283
:10408800C3F8E020D3F8E03003F400730A930A9BE6
:104098000CB07047454BD3F8E02042F48062C3F877
:1040A800E020D3F8E03003F480630B930B9BEFE739
:1040B8003E4BD3F8E02042F00102C3F8E020D3F8E9
:1040C800E03003F001030193019BE1E7374BD3F89C
:1040D800E02042F00202C3F8E020D3F8E03003F019
:1040E80002030293029BD3E7304BD3F8E02042F05F
:1040F8000402C3F8E020D3F8E03003F0040303938C
:10410800039BC5E7294BD3F8E02042F00802C3F827
:10411800E020D3F8E03003F008030493049BB7E7EA
:10412800224BD3F8E02042F01002C3F8E020D3F885
:10413800E03003F010030593059BA9E71B4BD3F868
:10414800E02042F02002C3F8E020D3F8E03003F08A
:1041580020030693069B9BE7144BD3F8E02042F01C
:104168004002C3F8E020D3F8E03003F0400307939F
:10417800079B8DE70D4BD3F8E02042F08002C3F88F
:10418800E020D3F8E03003F080030893089B7FE732
:10419800064BD3F8E02042F48072C3F8E020D3F84D
:1041A800E03003F480730993099B71E700440258D7
:1041B800704700BF0F4B1B780BB90120704710B533
:1041C80004464FF47A700C4AB0FBF3F31068B0FB66
:1041D800F3F000F073FE0F2C00D808B1012010BDD9
:1041E800002221464FF0FF3000F00CFE034B002068
:1041F8001C6010BD58000024540000245C000024FA
:1042080038B50320124D00F0EBFD124C04F0BEFB54
:10421800114A12499369C3F30323CB5C03F01F03CC
:1042280020FA03F30E202B60926902F00F028A5CD9
:1042380002F01F02D3402360FFF7BCFF10B1012436
:10424800204638BD0446FFF7B3FF204638BD00BFFF
:1042580054000024500000240044025850FF000875
:10426800034A044B11681B780B441360704700BF66
:10427800BC17002458000024014B1868704700BF81
:10428800BC17002438B50446FFF7F6FF0546631C43
:1042980002D0044B1B781C44FFF7EEFF401BA042E2
:1042A800FAD338BD58000024014B1868000C704739
:1042B8000010005C704700BF806B08B5FFF7FAFF7D
:1042C80008BD00BF836B5A6D12F0500F5A6D10B5C0
:1042D8001DD1196842F400725A650A6812F0080F75
:1042E800CA681BD012F4406F0DD1CA6894040AD46E
:1042F8005A6D22F480725A655A6DD10403D45A6DEE
:1043080042F001025A651846FDF772FF10BDD20649
:104318000AD4DB6CBDE81040DB6C18479007E7D087
:104328001846FDF765FFF1E71846FDF7EFFF10BDEA
:10433800806B08B5436D43F040034365836D43F0DC
:1043480004038365FDF7E2FF08BD00BFF0B5002256
:1043580083B0019290F85020012A00F0F5800346BE
:1043680001201A6883F850009468640754D40C68D4
:10437800C4F31305C4F3846E002D40F09E8000FA48
:104388000EF0D5694C6828431F254FEA941CD0616C
:1043980004F01F000CF00C0402F1300C0EFA00FEC1
:1043A80085405CF8040020EA050040EA0E004CF85D
:1043B8000400906810F0040F906801D1070735D504
:1043C8009068C60714D4CE68086806F01807B64C7B
:1043D800D2F8C050FC40C0F31307044025EA070593
:1043E8002C43C2F8C040B14CA64271D0002801DB72
:1043F800002016E0AE498A4204D001F580718A4255
:1044080040F0C180AB48AA49AB4A80688968926885
:10441800D20701D4CF07EBD55A6D012042F0200214
:104428005A65002283F8502003B0F0BD0C6802F1F1
:10443800140C4FF0070E8E68E50DC4F3045405F014
:1044480004050EFA04FE06FA04F45CF8050020EAF6
:104458000E0020434CF8050098484D69006800F0AC
:104468007040B0F1805FD0682DD010F0100FD06888
:1044780029D0400800F0080085400E690868042E1D
:1044880065D002F1600C00F0F8445CF8260000F0FA
:104498000040204328434CF826004C7E0D69A4F1C7
:1044A80001045CF82500B4FA84F420F000406409A3
:1044B80040EAC4704CF8250082E794FAA4F4B4FAF0
:1044C80084F4A0405DE7C0F3820040008540D4E753
:1044D800002F79D090FAA0F4B4FA84F4013404F0EF
:1044E8001F04092C00F2938090FAA0F4B4FA84F423
:1044F80090FAA0F5B5FA85F5013401260135A40630
:1045080005F01F0504F0F84406FA05F52C4390FA67
:10451800A0F0B0FA80F0304400F01F0000EB40003B
:104528000005044302F114060727E50DC4F30454FB
:1045380005F00405A740705920EA07008F68A740D6
:1045480038437051086851E7022003B0F0BD156E7A
:10455800840605F0F845B5EB806F4ED0506E00F03C
:10456800F840844244D0906E00F0F840844249D02C
:10457800D06E00F0F84084427FF422AFD06E20F075
:104588000040D0661CE74E4C4E49A6688D68ED0782
:104598003FF542AF4C4D06F0E077A84262D04B4D54
:1045A800A84251D04A4DA8427FF422AF70023FF58D
:1045B8001FAF8A427FF41CAFA26822F0E0723A4330
:1045C80042F48002A26013E7800E0124013000F05B
:1045D8001F058006AC4000F0F840092D44EA0004AD
:1045E80005EB45009CD91E38000540F0007098E79F
:1045F800506E20F000405066B5E7106E20F0004085
:104608001066ABE7906E20F000409066B0E790FA35
:10461800A0F4B4FA84F490FAA0F5B5FA85F501345B
:1046280001260135A40605F01F0504F0F84406FA32
:1046380005F52C4390FAA0F0B0FA80F0304400F071
:104648001F0000EB4000CEE7F5013FF5D1AE8A42EE
:104658007FF4CEAEA26822F0E0723A4342F0807254
:10466800A260C5E636023FF5C3AE8A427FF4C0AE0B
:10467800A268184922F0E0723A4342F40002A260AC
:104688000A6815499209A1FB021292095200019287
:10469800019A002A3FF4ACAE019A013A0192019ABC
:1046A800002AF9D1A4E600BFFFFF0F000000FF4772
:1046B8000020024000230240002102400010005C5C
:1046C8000063025800600258000084CB000052C703
:1046D8000000B8CF54000024632D3E0503689A6893
:1046E800D20701D5002070479968234A114270B556
:1046F800044609D0636D012043F010036365A36D80
:1047080043F00103A36570BD99681C4A0A4042F052
:1047180001029A60FFF7B0FD2368194A05469342E3
:1047280021D002F5807293421DD002F1C05202F5E9
:1047380084429268114E0AE09A68324042F00102BF
:104748009A60FFF799FD401B0228D3D823681A689E
:10475800D2070FD49A68D107EED5FFF78DFD401B1D
:104768000228F3D9C6E7074A9268D006E2D0064A7B
:104778009342DFD1002070BD3F000080C0FFFF7F63
:104788000020024000230240002102402DE9F041B0
:10479800374B044600680E46174698421CD003F56E
:1047A8008073984218D0334B9B68856815F00405D0
:1047B80018D194F85020012A14D003F01F0840F2B1
:1047C8002123012023FA08F384F8500003400CD178
:1047D80084F85030BDE8F081274B9B68856815F058
:1047E8000405E6D00220BDE8F0812046FFF776FFF9
:1047F800002838D1626D214B2168134043F480733F
:104808006365B8F1000F02D01D4B994203D0636D68
:1048180023F480136365636D13F4805326D0A36D6E
:1048280023F00603A365E06C3B46164D3246403143
:10483800C563154D0564154DC5641C2541F8405CDC
:10484800002584F8505051F83C5C45F0100541F8BB
:104858003C5C00F03DFE22680D4B91680B4043F034
:1048680004039360BFE784F85050BCE7A365DAE718
:10487800002002400063025800230240FEF0FFFFC0
:1048880000210240CD420008C14200083943000817
:10489800C0FFFF7F38B503689A68910702D59B6807
:1048A800002038BD9A68D207FAD59A68044602F003
:1048B8000D02012A09D0636D012043F010036365DE
:1048C800A36D43F00103A36538BD98680321094A25
:1048D800024042F002029A601960FFF7CDFC0546DB
:1048E80023689B68DB07DBD5FFF7C6FC401B022863
:1048F800F6D9E0E7C0FFFF7F38B5554A044603689C
:10490800934224D002F58072934220D0514B9B6889
:1049180013F4403F20D004F0E3F963680546B3F58B
:10492800003F75D0B3F5403F7AD0B3F5803F6FD0E4
:10493800FFF7BAFC41F2030398422CD8464A236891
:10494800954248D99A6842F480729A6038BD434BC0
:104958009B6813F4403FDED14FF4002005F030FB94
:1049680063680546B3F5101F58D027D8B3F5E01F84
:1049780052D057D8B3F5801F08D061D8B3F5002FAF
:1049880004D023F40022B2F5802FD1D19B0C5B0018
:10499800B5FBF3F5CCE7324A2368954226D9314A6C
:1049A80031492A448A422CD9304A31492A448A4218
:1049B8003FD99A6842F440729A6038BDB3F5201F17
:1049C80035D0B3F5301FB3D1FFF76EFC41F20303C6
:1049D800984205D823689A6822F480729A6038BD94
:1049E8001F4B2A0AB3EB152F05D323689A6822F4C4
:1049F80040729A6038BD1B4B1B4913448B42236895
:104A080017D89A6822F4407242F480729A6038BDCE
:104A18001B0CB5FBF3F58BE7050989E7850987E7E3
:104A2800850885E7B3F5001F82D1450980E7C509E8
:104A38007EE79A6822F4407242F400729A6038BDA8
:104A4800B3F5A01FA2D0B3F5C01F9FD070E700BF79
:104A58000020024000630258002D3101002302406B
:104A6800105E5F00EFA1A0FF0F5E5F00DF4341FF14
:104A78001FBCBE0030B5002383B00193002800F0AE
:104A8800A880456D0446002D00F0A980226893682F
:104A9800990003D59168704B0B4093609368DB00D5
:104AA80015D46E4B90686E491B6801406D489B0990
:104AB80041F08051A0FB030391609B090193019B86
:104AC8002BB1019B013B0193019B002BF9D193680A
:104AD800DD0000F18280636D012543F010036365FA
:104AE800A36D2B43A365936813F0040F636D6CD11A
:104AF800D8066AD4636D23F4817343F002036365B7
:104B08009368D9070CD4584B9A4200F0818003F57A
:104B180080739A427CD0554B9B68D90740F18980B5
:104B2800FFF7C2FB41F20303A1689842237F5CD8D8
:104B380094F815C01A04206B42EA4C3202430A4327
:104B4800012B03D1236A013B42EA4342636A23B142
:104B580003F47873A16A0B431A4323684449D8685D
:104B680001401143D9609A6812F0040F9A681CD169
:104B780012071AD4D8683F4A217D024042EA81329E
:104B8800E16A0A43DA6094F83820012A53D01A6996
:104B980022F001021A611A692046616B22F0704204
:104BA8000A431A61FFF7A8FE2368E268012A27D0A2
:104BB8001A6B22F00F021A63636D284623F0030371
:104BC80043F00103636503B030BD636D43F0100328
:104BD80063650125284603B030BD002583E7FDF74E
:104BE800B7FAA56584F8505050E71029A0D1617D27
:104BF8001A0442EA4132216B0A4342F01C029FE741
:104C0800196BA26921F00F01013A0A431A63D3E72D
:104C1800154A194B92689B68DB0781D4D0073FF58A
:104C28007FAF164A9368616823F47C130B43936043
:104C380076E7134AF6E7D4E9102118690A431149BF
:104C480001400A43A16C0A43E16B42EA014242F087
:104C580001021A619FE700BFC0FFFF5F54000024F4
:104C6800C0FFFF6F632D3E05002002400060025820
:104C780003C0F0FFFCBFFFFF0021024000230240F9
:104C8800006302581EF800FCF0B5002383B00193BE
:104C980090F85030012B40D0012304460E461546AB
:104CA80080F85030FFF7F6FDE8B9676D05F08042EF
:104CB8001B4B06F4803125683B4043F002036365D3
:104CC800184BAE68334013430B4343F00043AB60CB
:104CD800AB68154A002B0FDB636D23F0030343F029
:104CE8000103636503E0636D43F01003636500230C
:104CF80084F8503003B0F0BD019B01330193019B50
:104D08009342E5D9636D0022012023F0120384F851
:104D1800502043F010036365ECE7022003B0F0BDB8
:104D2800FDEEFFFFC0FFFE3FFF955A5590F850205B
:104D3800012A36D003460120F0B41A68244C83F8BF
:104D48005000A24208D05A6D002142F0200283F898
:104D580050105A65F0BC70471E48846864070AD52D
:104D680092685A6D012042F020025A65002283F8A9
:104D78005020F0BC704794686607F2D40C6894B968
:104D880015498C6824F440448C6094688268D5077F
:104D980005D4E20703D48868104A02408A600020DC
:104DA800E4E7022070470C4E4F68B56825F440458B
:104DB8003D43B56095688268D707F0D4E807EED41C
:104DC8008A68B0681443054A02401443B460E6E7B1
:104DD800002002400021024000230240E0F0FFFFD3
:104DE80006494FF6FF0C0002054BCA6800F4E06064
:104DF80002EA0C0210430343CB60704700ED00E069
:104E08000000FA051A4BDB68C3F3022300B5C3F1AF
:104E1800070E03F1040CBEF1040F28BF4FF0040E77
:104E2800BCF1060F1AD9A3F1030C4FF0FF3303FAB4
:104E38000CF322EA03024FF0FF33002803FA0EF3C3
:104E480021EA030303FA0CF343EA02034FEA0313CC
:104E5800DBB206DB074A13545DF804FB00229446D4
:104E6800E9E700F00F00044A13545DF804FB00BFA3
:104E780000ED00E000E400E014ED00E0002807DBAE
:104E880000F01F0101234009024A8B4042F82030FC
:104E9800704700BF00E100E000280CDB4309012255
:104EA80000F01F0004492033824041F82320BFF35B
:104EB8004F8FBFF36F8F704700E100E0431EB3F1DF
:104EC800807F01D3012070474FF0E0220020054980
:104ED8004FF0F00C5361072381F823C090611361F0
:104EE800704700BF00ED00E0BFF35F8F044B002167
:104EF8005A6A22F480325A62C3F89410704700BF8D
:104F080000ED00E0064B40F00100C3F894005A6A37
:104F180042F480325A62BFF34F8FBFF36F8F7047EE
:104F280000ED00E0174A4378C2F89830017821B3C1
:104F3800436800B5C2F89C30C37A90F80CC01B06D1
:104F480090F80FE043EA0C7390F80AC00B43817B9A
:104F580043EACC4390F80DC043EA8C4390F809C06B
:104F680043EA4143017A43EA0E4343EA0C2343EA06
:104F78004103C2F8A0305DF804FBC2F89C10C2F8E7
:104F8800A010704700ED00E0704700BF08B5FFF7BC
:104F9800FBFF08BD3649024603688B4233D01831FF
:104FA800591AB1FA81F1490969BB324883423ED0A6
:104FB800183083423ED01830834234D018308342B0
:104FC8003BD0183083423ED0183083422AD000F5B7
:104FD8005670834235D028498B4231D018318B42E4
:104FE80034D018318B4234D018318B4234D0183138
:104FF8008B4234D018318B4234D018318B4234D0A4
:1050080023F0FF0011E0DBB21C491D48103BA1FB57
:10501800031310B41B091B4CE15C5DF8044BC2E997
:105028001601704716211848D16590657047102100
:105038001348F9E716211248F6E706211248F3E764
:1050480006211248F0E710210F48EDE710210F481C
:10505800EAE716210D48E7E700210D48E4E70621B5
:105068000B48E1E710210A48DEE716210848DBE78C
:10507800100002404000024028040240ABAAAAAA3D
:1050880000000240B0FF0008040002400004024093
:10509800040402400268284B284930B4284D294CA2
:1050A800AA4218BF9A420CBF012300238A4208BFB4
:1050B80043F001032831A24208BF43F0010328341A
:1050C8008A4208BF43F001032831A24208BF43F0D7
:1050D80001038A4208BF43F00103D1B213B91A4B46
:1050E8009A4211D1A1F10803184C194A0121A4FBD5
:1050F8000343184C1D0902EB1313A9409B0081665A
:10510800C0E9183430BC7047A1F110031249134CA0
:105118001144A4FB0343A8294FEA131308D903F049
:105128001F040F4A01211A44A1400E4C9300E6E7E0
:1051380008331C46F5E700BF08540258305402589B
:105148001C5402584454025894540258CDCCCCCC28
:105158000096001680580258F0FBFDBFABAAAAAA19
:10516800008200108008024070B50546FFF784F8F9
:10517800002D00F0A9802B680446904A90498B4284
:1051880018BF934201F118010CBF012200228B4283
:1051980008BF42F0010218318B4208BF42F00102F9
:1051A80018318B4208BF42F0010218318B4208BF08
:1051B80042F0010218318B4208BF42F00102183157
:1051C8008B4208BF42F0010201F556718B4208BFBD
:1051D80042F0010218318B4208BF42F00102183137
:1051E8008B4208BF42F0010218318B4208BF42F0DF
:1051F800010218318B4208BF42F0010218318B427C
:1052080008BF42F0010218318B4208BF42F0010288
:105218001AB96C4A934240F0E3800222002185F8D3
:10522800352085F834101A6822F001021A6005E06A
:10523800FFF722F8031B052B41D82B681A68D10702
:10524800F6D4D5E9022429692243A8691C680A43CF
:1052580069690A43E96902430A435B4921402C6AA8
:1052680022430A43696A042930D01A605A6922F035
:105278000702114359612846FFF78CFEEA6D3F2368
:1052880002F01F02934083602846FFF703FFAB68D4
:10529800802B6ED06B68A86ED9B2013BD5E9184255
:1052A800072B216050602ED90023C5E91B336B679B
:1052B800002301226B65184685F8352070BD202231
:1052C80003236A6585F83530012070BDD5E90B41A7
:1052D80021431143AA6A1960596921F00701114352
:1052E80041F00401002CC5D000284AD1012A5FD022
:1052F80032F00202BED1E201BCD5402201236A6528
:1053080085F83530E0E72A68481E304B304CA24219
:1053180018BF9A4204F114040CBF01230023A242CF
:1053280008BF43F001031434A24208BF43F001034D
:105338001434A24208BF43F001031434A24208BF48
:1053480043F001031434A24208BF43F001031BB920
:10535800204B9A4240F09E801F4A204C0A449200FB
:10536800012300218340C5E91B246B67116063603A
:105378009EE70023A96ED5E918026B6003605160AF
:1053880092E7B0F5005F04D0022AB6D9032AB2D05A
:1053980070E7032A3FF66EAF01A050F822F000BF75
:1053A80003530008FF52000803530008B9530008CC
:1053B800B4F1C07F7FF45EAF9FE700BF10000240EA
:1053C80028000240B80402403F8010FE08540258EA
:1053D8001C540258945402583F96001640590258DB
:1053E800334A34483449834218BF934200F12800B5
:1053F8000CBF012200228B4208BF42F00102283173
:10540800834208BF42F0010228308B4208BF42F0B5
:1054180001022831834208BF42F001028B4208BFD3
:1054280042F0010212B9254A93423AD100200221E2
:10543800AA6885F8340085F83510402A1C686FF38F
:1054480010142CD0A2F18002B2FA82F25209910310
:10545800EE69D5E9032010436A691043AA6910432D
:10546800174A30432E6A1A4444EA161444EAD00014
:1054780001431448A0FB02022846196013099B0047
:10548800EB65FFF787FDE96D012201F01F018A40F6
:105498004260F9E60C4A0D4C0A44920060E710217C
:1054A800D6E7402203236A6585F835300CE700BF4C
:1054B800085402581C540258305402589454025844
:1054C800F8ABFDA7CDCCCCCC3F8200104009024000
:1054D800002800F0D3802DE9F04F90F8344083B0D5
:1054E800012C00F0C780012480F8344090F8354042
:1054F800012C09D000224FF4006380F83420436562
:10550800012003B0BDE8F08F02248C4D8C4E80F84A
:10551800354000248B4F44650468DFF83492B44268
:1055280018BFAC4206F11806D0F858E00CBF0125A8
:105538000025B44208BF45F0010506F55676B44289
:1055480008BF45F001051836B44208BF45F001050B
:105558001836B44208BF45F001051836B44208BFF2
:1055680045F001051836B44208BF45F00105183664
:10557800B44208BF45F00105A6F58666BC4218BFCF
:10558800B44206F58966C76E0CBF4FF001084FF0AC
:105598000008B44208BF45F00105A6F58666B44286
:1055A80008BF48F0010806F58966B44208BF45F00F
:1055B8000105A6F59266B44218BF4C4545EA080CA9
:1055C80001950CBF01250025D0E919AB009502D043
:1055D800BCF1000F54D0D4F8009029F00109C4F8A8
:1055E8000090CAF804B03FB1D0E91C566E60009D27
:1055F80015B9BCF1000F4DD0C56D4FF03F0905F04E
:105608001F0A09FA0AF9CEF80890D4F800E02EF437
:10561800802EC4F800E063608368402B27D0A16027
:10562800E260009B13B9B8F1000F7ED0236823F025
:105638001E0343F016032360036C1BB1236843F079
:1056480008032360036E1A68D20303D51A6842F46C
:1056580080721A601FB13B6843F480733B60236813
:10566800002043F00103236003B0BDE8F08FA2607F
:10567800E160D6E7022003B0BDE8F08F0120704753
:10568800256825F001052560CAF804B017B1D0E9EE
:105698001C566E602C4DDFF8BC80444518BFAC42E8
:1056A80008F114080CBF01250025444508BF45F042
:1056B800010508F11408444508BF45F0010508F143
:1056C8001408444508BF45F0010508F1140844458D
:1056D80008BF45F0010508F11408444508BF45F026
:1056E800010515B9194DAC420DD1C56D05F01F085E
:1056F800012505FA08F5CEF8045063608368402B4D
:1057080018D0A160E2602268016C22F00E02036EDC
:1057180042F00A022260002995D0226842F0040271
:1057280022601A68D10391D494E7019B002B7FF47F
:105738007DAFE8E7A260E160E5E700BF88000240CE
:10574800A0000240400002400854025894540258F5
:10575800100002401C540258002862D038B590F856
:105768003530022B59D10268444B454C4549A24279
:1057780018BF9A4204F130040CBF012300238A4267
:1057880008BF43F001033031A24208BF43F00103D0
:1057980030348A4208BF43F001033031A24208BFC7
:1057A80043F0010330348A4208BF43F0010301F596
:1057B8005C71A24208BF43F0010304F55C748A429D
:1057C80008BF43F001033031A24208BF43F0010390
:1057D80030348A4208BF43F001033031A24208BF87
:1057E80043F0010330348A4208BF43F001033031EB
:1057F800A24208BF43F001038A4208BF43F00103F5
:1058080013B9214B9A420ED1042380F8353013681E
:1058180023F001031360002038BD80234365012075
:1058280038BD012070471368046E23F00E03C16D64
:10583800856D136001F01F01136823F001031360E5
:10584800012322688B4022F4807222606B60C36E51
:10585800D0E91921516033B11A68D0E91C1422F437
:1058680080721A604C6000210122036D80F83410A8
:1058780080F83520002BCED09847CCE710000240A6
:105888002800024040000240B8040240F0B500225F
:10589800944B83B0856D07461E680192924B02684F
:1058A80092482C68824218BF9A4200F11800296871
:1058B8000CBF01230023824208BF43F001031830C4
:1058C800824208BF43F001031830824208BF43F008
:1058D80001031830824208BF43F0010318308242A6
:1058E80008BF43F001031830824208BF43F00103A8
:1058F80000F55670824208BF43F001031830824217
:1059080008BF43F001031830824208BF43F0010387
:105918001830824208BF43F001031830824208BFA2
:1059280043F001031830824208BF43F001031830E6
:10593800824208BF43F001031BB96D4B9A4240F005
:105948002F81FB6D082103F01F03994021420BD0E2
:105958001068400708D5106820F004001060A9609E
:10596800796D41F00101796524FA03F1C80709D579
:105978005169090606D501219940A960796D41F060
:105988000201796504219940214207D010688007F7
:1059980004D5A960796D41F0040179651021994019
:1059A800214200F0B0801068000740F1AC80A96087
:1059B800116811F4802F116840F09E80C90503D446
:1059C800116821F008011160396C002900F09B80F2
:1059D80038468847FB6D202103F01F039940214278
:1059E80053D03A684048414CA24218BF824204F161
:1059F80018040CBF01200020A24208BF40F001009B
:105A08001834A24208BF40F001001834A24208BF6F
:105A180040F001001834A24208BF40F001001834D9
:105A2800A24208BF40F001001834A24208BF40F06B
:105A3800010004F55674A24208BF40F00100183472
:105A4800A24208BF40F001001834A24208BF40F04B
:105A580001001834A24208BF40F001001834A242E5
:105A680008BF40F001001834A24208BF40F001000E
:105A78001834A24208BF40F00100002847D11C4852
:105A8800824244D01068800744D47B6D002B70D0CC
:105A98007B6DDC071ED53A68042187F83510154957
:105AA8001368A1FB066123F00103890A136002E071
:105AB8001368D80704D5019B01338B420193F7D9AA
:105AC800002387F834301368DB074CBF0323012316
